{
  "contractName": "ToDoList",
  "abi": [
    {
      "constant": true,
      "inputs": [
        {
          "name": "",
          "type": "int8"
        }
      ],
      "name": "items",
      "outputs": [
        {
          "name": "id",
          "type": "int8"
        },
        {
          "name": "name",
          "type": "string"
        }
      ],
      "payable": false,
      "stateMutability": "view",
      "type": "function",
      "signature": "0x050fbc44"
    },
    {
      "constant": true,
      "inputs": [],
      "name": "nItems",
      "outputs": [
        {
          "name": "",
          "type": "int8"
        }
      ],
      "payable": false,
      "stateMutability": "view",
      "type": "function",
      "signature": "0x1d046587"
    },
    {
      "constant": true,
      "inputs": [],
      "name": "totalItems",
      "outputs": [
        {
          "name": "",
          "type": "int8"
        }
      ],
      "payable": false,
      "stateMutability": "view",
      "type": "function",
      "signature": "0x2799276d"
    },
    {
      "inputs": [],
      "payable": false,
      "stateMutability": "nonpayable",
      "type": "constructor",
      "signature": "constructor"
    },
    {
      "constant": false,
      "inputs": [
        {
          "name": "name",
          "type": "string"
        }
      ],
      "name": "addItem",
      "outputs": [],
      "payable": false,
      "stateMutability": "nonpayable",
      "type": "function",
      "signature": "0x27e9f294"
    },
    {
      "constant": false,
      "inputs": [
        {
          "name": "id",
          "type": "int8"
        }
      ],
      "name": "removeItem",
      "outputs": [],
      "payable": false,
      "stateMutability": "nonpayable",
      "type": "function",
      "signature": "0x8b39ec51"
    },
    {
      "constant": true,
      "inputs": [
        {
          "name": "id",
          "type": "int8"
        }
      ],
      "name": "getItem",
      "outputs": [
        {
          "name": "",
          "type": "string"
        }
      ],
      "payable": false,
      "stateMutability": "view",
      "type": "function",
      "signature": "0x3e038994"
    }
  ],
  "bytecode": "0x608060405234801561001057600080fd5b5060008060006101000a81548160ff021916908360000b60ff16021790555060008060016101000a81548160ff021916908360000b60ff1602179055506107b68061005c6000396000f3fe608060405260043610610078576000357c0100000000000000000000000000000000000000000000000000000000900463ffffffff168063050fbc441461007d5780631d046587146101415780632799276d1461017257806327e9f294146101a35780633e0389941461026b5780638b39ec5114610322575b600080fd5b34801561008957600080fd5b506100b9600480360360208110156100a057600080fd5b81019080803560000b9060200190929190505050610360565b604051808360000b60000b815260200180602001828103825283818151815260200191508051906020019080838360005b838110156101055780820151818401526020810190506100ea565b50505050905090810190601f1680156101325780820380516001836020036101000a031916815260200191505b50935050505060405180910390f35b34801561014d57600080fd5b50610156610429565b604051808260000b60000b815260200191505060405180910390f35b34801561017e57600080fd5b5061018761043b565b604051808260000b60000b815260200191505060405180910390f35b3480156101af57600080fd5b50610269600480360360208110156101c657600080fd5b81019080803590602001906401000000008111156101e357600080fd5b8201836020820111156101f557600080fd5b8035906020019184600183028401116401000000008311171561021757600080fd5b91908080601f016020809104026020016040519081016040528093929190818152602001838380828437600081840152601f19601f82011690508083019250505050505050919291929050505061044e565b005b34801561027757600080fd5b506102a76004803603602081101561028e57600080fd5b81019080803560000b906020019092919050505061054b565b6040518080602001828103825283818151815260200191508051906020019080838360005b838110156102e75780820151818401526020810190506102cc565b50505050905090810190601f1680156103145780820380516001836020036101000a031916815260200191505b509250505060405180910390f35b34801561032e57600080fd5b5061035e6004803603602081101561034557600080fd5b81019080803560000b9060200190929190505050610609565b005b60016020528060005260406000206000915090508060000160009054906101000a900460000b90806001018054600181600116156101000203166002900480601f01602080910402602001604051908101604052809291908181526020018280546001816001161561010002031660029004801561041f5780601f106103f45761010080835404028352916020019161041f565b820191906000526020600020905b81548152906001019060200180831161040257829003601f168201915b5050505050905082565b6000809054906101000a900460000b81565b600060019054906101000a900460000b81565b60408051908101604052806000809054906101000a900460000b60000b815260200182815250600160008060009054906101000a900460000b60000b60000b815260200190815260200160002060008201518160000160006101000a81548160ff021916908360000b60ff16021790555060208201518160010190805190602001906104db9291906106e5565b5090505060008081819054906101000a900460000b8092919060010191906101000a81548160ff021916908360000b60ff160217905550506000600181819054906101000a900460000b8092919060010191906101000a81548160ff021916908360000b60ff1602179055505050565b6060600160008360000b60000b81526020019081526020016000206001018054600181600116156101000203166002900480601f0160208091040260200160405190810160405280929190818152602001828054600181600116156101000203166002900480156105fd5780601f106105d2576101008083540402835291602001916105fd565b820191906000526020600020905b8154815290600101906020018083116105e057829003601f168201915b50505050509050919050565b6000809054906101000a900460000b60000b8160000b1315156106e25760408051908101604052806000800b81526020016020604051908101604052806000815250815250600160008360000b60000b815260200190815260200160002060008201518160000160006101000a81548160ff021916908360000b60ff16021790555060208201518160010190805190602001906106a79291906106e5565b509050506000600181819054906101000a900460000b809291906001900391906101000a81548160ff021916908360000b60ff160217905550505b50565b828054600181600116156101000203166002900490600052602060002090601f016020900481019282601f1061072657805160ff1916838001178555610754565b82800160010185558215610754579182015b82811115610753578251825591602001919060010190610738565b5b5090506107619190610765565b5090565b61078791905b8082111561078357600081600090555060010161076b565b5090565b9056fea165627a7a723058202009749a0eb6b05c5c9f433007ab5e947460fd10b3dd4db03dc6552591c800730029",
  "source": "pragma solidity ^0.5.0;\r\n\r\ncontract ToDoList{\r\n    \r\nint8 public nItems; //Counter only for items added even if they are removed\r\nint8 public totalItems; //Counter for items present\r\nstruct Item{\r\n\tint8 id;\r\n\tstring name;\r\n}\r\nmapping(int8=>Item) public items; //Mapping starts from Index 1\r\n\r\nconstructor() public {\r\n\tnItems=0;\r\n\ttotalItems=0;\r\n}\r\n\tfunction addItem(string memory name) public {\r\n\t\titems[nItems]=Item(nItems,name);\r\n\t\tnItems++;\r\n\t\ttotalItems++;\r\n\t}\r\n\tfunction removeItem(int8 id) public {\r\n\t\tif(id<=nItems){\r\n\t\titems[id]=Item(0,\"\");\r\n\t\ttotalItems--;\t\r\n\t\t}\r\n\t\t\r\n\t}\r\n\tfunction getItem(int8 id) public view returns(string memory){\r\n\t\treturn items[id].name;\r\n\t}\r\n}",
  "sourcePath": "C:/Users/Fahad-Laptop/Practice Dapp/TodoList/contracts/ToDoList.sol",
  "compiler": {
    "name": "solc",
    "version": "0.5.0+commit.1d4f565a.Emscripten.clang"
  },
  "schemaVersion": "3.0.1",
  "updatedAt": "2020-08-25T15:55:05.661Z",
  "devdoc": {
    "methods": {}
  },
  "userdoc": {
    "methods": {}
  }
}